:020000040800F2
:1000000000000220C54C0008991800089B18000841
:100010009D1800089F180008A118000800000000A3
:10002000000000000000000000000000A31800080D
:10003000A518000800000000A7180008A91800086B
:10004000154D0008154D0008154D0008154D000808
:10005000154D0008154D0008154D0008154D0008F8
:10006000154D0008154D0008154D0008154D0008E8
:10007000154D0008154D0008154D0008154D0008D8
:10008000B1180008C1180008154D0008154D0008EA
:10009000154D0008154D0008154D0008154D0008B8
:1000A000154D0008154D0008154D0008154D0008A8
:1000B000154D0008154D0008154D0008154D000898
:1000C000154D0008154D0008154D0008154D000888
:1000D000154D0008D1180008E1180008154D00085A
:1000E000154D0008154D0008154D0008154D000868
:1000F000154D0008F1180008154D0008154D0008B1
:10010000154D0008154D0008154D0008154D000847
:10011000154D0008154D0008154D0008154D000837
:10012000154D0008154D0008154D0008154D000827
:10013000154D0008154D0008154D0008154D000817
:10014000154D0008154D0008154D0008154D000807
:10015000154D0008154D0008154D0008154D0008F7
:10016000154D0008154D0008154D0008154D0008E7
:10017000154D0008154D0008154D00080000000041
:08018000154D0008154D0008A3
:1001C00010B5054C237833B9044B13B10448AFF391
:1001D00000800123237010BD400A002000000000B1
:1001E000BCBF000808B5034B1BB103490348AFF37C
:1001F000008008BD00000000440A0020BCBF0008C9
:100200004FF0FF0C1CEAD0521EBF1CEAD15392EAF9
:100210000C0F93EA0C0F6FD01A4480EA010C4002D5
:1002200018BF5FEA41211ED04FF0006343EA50102F
:1002300043EA5111A0FB01310CF00040B1F5000F71
:100240003EBF490041EAD3715B0040EA010062F120
:100250007F02FD2A1DD8B3F1004F40EBC25008BF0A
:1002600020F00100704790F0000F0CF0004C08BF28
:1002700049024CEA502040EA51207F3AC2BFD2F1F5
:10028000FF0340EAC250704740F400004FF0000303
:10029000013A5DDC12F1190FDCBF00F0004070473D
:1002A000C2F10002410021FA02F1C2F1200200FA7B
:1002B00002FC5FEA310040F1000053EA4C0308BF42
:1002C00020EADC70704792F0000F00F0004C02BF93
:1002D000400010F4000F013AF9D040EA0C0093F00E
:1002E000000F01F0004C02BF490011F4000F013B68
:1002F000F9D041EA0C018FE70CEAD15392EA0C0FD6
:1003000018BF93EA0C0F0AD030F0004C18BF31F040
:10031000004CD8D180EA010000F00040704790F016
:10032000000F17BF90F0004F084691F0000F91F0BA
:10033000004F14D092EA0C0F01D142020FD193EA80
:100340000C0F03D14B0218BF084608D180EA010008
:1003500000F0004040F0FE4040F40000704740F0E4
:10036000FE4040F44000704781F0004102E000BFD1
:1003700083F0004330B54FEA41044FEA430594EA65
:10038000050F08BF90EA020F1FBF54EA000C55EAA0
:10039000020C7FEA645C7FEA655C00F0E2804FEA71
:1003A0005454D4EB5555B8BF6D420CDD2C4480EA53
:1003B000020281EA030382EA000083EA010180EA83
:1003C000020281EA0303362D88BF30BD11F0004FD1
:1003D0004FEA01314FF4801C4CEA113102D0404207
:1003E00061EB410113F0004F4FEA03334CEA133342
:1003F00002D0524263EB430394EA050F00F0A7805A
:10040000A4F10104D5F1200E0DDB02FA0EFC22FA54
:1004100005F2801841F1000103FA0EF2801843FA48
:1004200005F359410EE0A5F120050EF1200E012A39
:1004300003FA0EFC28BF4CF0020C43FA05F3C01877
:1004400051EBE37101F0004507D54FF0000EDCF1F0
:10045000000C7EEB00006EEB0101B1F5801F1BD399
:10046000B1F5001F0CD349085FEA30004FEA3C0C9D
:1004700004F101044FEA445212F5800F80F09A8093
:10048000BCF1004F08BF5FEA500C50F1000041EB97
:10049000045141EA050130BD5FEA4C0C404141EB9B
:1004A0000101013C28BFB1F5801FE9D291F0000F96
:1004B00004BF01460020B1FA81F308BF2033A3F145
:1004C0000B03B3F120020CDA0C3208DD02F1140C3C
:1004D000C2F10C0201FA0CF021FA02F10CE002F177
:1004E0001402D8BFC2F1200C01FA02F120FA0CFC70
:1004F000DCBF41EA0C019040E41AA2BF01EB0451B9
:10050000294330BD6FEA04041F3C1CDA0C340EDCB6
:1005100004F11404C4F1200220FA04F001FA02F3F9
:1005200040EA030021FA04F345EA030130BDC4F1B7
:100530000C04C4F1200220FA02F001FA04F340EAAC
:100540000300294630BD21FA04F0294630BD94F05D
:10055000000F83F4801306BF81F480110134013D44
:100560004EE77FEA645C18BF7FEA655C29D094EAB5
:10057000050F08BF90EA020F05D054EA000C04BF33
:100580001946104630BD91EA030F1EBF002100201E
:1005900030BD5FEA545C05D14000494128BF41F0BD
:1005A000004130BD14F580043CBF01F5801130BD21
:1005B00001F0004545F0FE4141F470014FF00000AC
:1005C00030BD7FEA645C1ABF194610467FEA655C5D
:1005D0001CBF0B46024650EA013406BF52EA0335FF
:1005E00091EA030F41F4002130BD00BF90F0000FED
:1005F00004BF0021704730B54FF4806404F1320429
:100600004FF000054FF0000150E700BF90F0000FE1
:1006100004BF0021704730B54FF4806404F1320408
:1006200010F0004548BF40424FF000013EE700BFD8
:1006300042004FEAE2014FEA31014FEA02701FBF68
:1006400012F07F4393F07F4F81F06051704732F09A
:100650007F4208BF704793F07F4F04BF41F40021F1
:10066000704730B54FF4607401F0004521F000414F
:100670001CE700BF50EA010208BF704730B54FF0D9
:1006800000050AE050EA010208BF704730B511F0DA
:10069000004502D5404261EB41014FF4806404F112
:1006A00032045FEA915C3FF4D8AE4FF003025FEA98
:1006B000DC0C18BF03325FEADC0C18BF033202EB1C
:1006C000DC02C2F1200300FA03FC20FA02F001FA76
:1006D00003FE40EA0E0021FA02F11444BDE600BF19
:1006E00070B54FF0FF0C4CF4E06C1CEA11541DBFC8
:1006F0001CEA135594EA0C0F95EA0C0F00F0DEF893
:100700002C4481EA030621EA4C5123EA4C5350EA77
:10071000013518BF52EA033541F4801143F48013C8
:1007200038D0A0FB02CE4FF00005E1FB02E506F059
:100730000042E0FB03E54FF00006E1FB03569CF0AE
:10074000000F18BF4EF0010EA4F1FF04B6F5007FB4
:1007500064F5407404D25FEA4E0E6D4146EB060626
:1007600042EAC62141EA55514FEAC52040EA5E50AF
:100770004FEACE2EB4F1FD0C88BFBCF5E06F1ED859
:10078000BEF1004F08BF5FEA500E50F1000041EB90
:10079000045170BD06F0004646EA010140EA02003D
:1007A00081EA0301B4EB5C04C2BFD4EB0C0541EA5F
:1007B000045170BD41F480114FF0000E013C00F374
:1007C000AB8014F1360FDEBF002001F0004170BD98
:1007D000C4F10004203C35DA0C341BDC04F11404B1
:1007E000C4F1200500FA05F320FA04F001FA05F23D
:1007F00040EA020001F0004221F0004110EBD3700A
:1008000021FA04F642EB06015EEA430E08BF20EA35
:10081000D37070BDC4F10C04C4F1200500FA04F3D8
:1008200020FA05F001FA04F240EA020001F000416A
:1008300010EBD37041F100015EEA430E08BF20EADD
:10084000D37070BDC4F1200500FA05F24EEA020E25
:1008500020FA04F301FA05F243EA020321FA04F054
:1008600001F0004121FA04F220EA020000EBD3700B
:100870005EEA430E08BF20EAD37070BD94F0000F0B
:100880000FD101F00046400041EB010111F4801F3F
:1008900008BF013CF7D041EA060195F0000F18BFF0
:1008A000704703F00046520043EB030313F4801F2C
:1008B00008BF013DF7D043EA0603704794EA0C0FE6
:1008C0000CEA135518BF95EA0C0F0CD050EA4106FC
:1008D00018BF52EA4306D1D181EA030101F0004179
:1008E0004FF0000070BD50EA410606BF10461946A1
:1008F00052EA430619D094EA0C0F02D150EA0136AD
:1009000013D195EA0C0F05D152EA03361CBF1046ED
:1009100019460AD181EA030101F0004141F0FE418C
:1009200041F470014FF0000070BD41F0FE4141F410
:10093000780170BD70B54FF0FF0C4CF4E06C1CEA10
:1009400011541DBF1CEA135594EA0C0F95EA0C0FC5
:1009500000F0A7F8A4EB050481EA030E52EA033580
:100960004FEA013100F088804FEA03334FF08055A1
:1009700045EA131343EA12634FEA022245EA1115CE
:1009800045EA10654FEA00260EF000419D4208BF7F
:10099000964244F1FD0404F5407402D25B084FEA2C
:1009A0003202B61A65EB03055B084FEA32024FF4D8
:1009B00080104FF4002CB6EB020E75EB030E22BF35
:1009C000B61A754640EA0C005B084FEA3202B6EBF5
:1009D000020E75EB030E22BFB61A754640EA5C00A4
:1009E0005B084FEA3202B6EB020E75EB030E22BF34
:1009F000B61A754640EA9C005B084FEA3202B6EB35
:100A0000020E75EB030E22BFB61A754640EADC00F3
:100A100055EA060E18D04FEA051545EA16754FEA55
:100A200006164FEAC30343EA52734FEAC2025FEA73
:100A30001C1CC0D111F4801F0BD141EA00014FF002
:100A400000004FF0004CB6E711F4801F04BF0143D3
:100A50000020B4F1FD0C88BFBCF5E06F3FF6AFAEEF
:100A6000B5EB030C04BFB6EB020C5FEA500C50F17F
:100A7000000041EB045170BD0EF0004E4EEA113102
:100A800014EB5C04C2BFD4EB0C0541EA045170BD09
:100A900041F480114FF0000E013C90E645EA060E4D
:100AA0008DE60CEA135594EA0C0F08BF95EA0C0F7B
:100AB0003FF43BAF94EA0C0F0AD150EA01347FF4C3
:100AC00034AF95EA0C0F7FF425AF104619462CE79A
:100AD00095EA0C0F06D152EA03353FF4FDAE1046FD
:100AE000194622E750EA410618BF52EA43067FF44E
:100AF000C5AE50EA41047FF40DAF52EA43057FF4DE
:100B0000EBAE12E74FEA4102B2F1E04324BFB3F586
:100B1000001CDCF1FE5C0DD901F0004C4FEAC00274
:100B20004CEA5070B2F1004F40EB830008BF20F058
:100B30000100704711F0804F21D113F13872BCBF12
:100B400001F00040704741F480114FEA5252C2F167
:100B50001802C2F1200C10FA0CF320FA02F018BFB0
:100B600040F001004FEAC1234FEAD32303FA0CFC03
:100B700040EA0C0023FA02F34FEA4303CCE77FEA92
:100B8000625307D150EA01331EBF4FF0FE4040F4DC
:100B90004000704701F0004040F0FE4040F400008B
:100BA000704700BF4FEA4002B2F1FE4F0FD34FF043
:100BB0009E03B3EB12620DD94FEA002343F00043CA
:100BC00010F0004F23FA02F018BF404270474FF078
:100BD0000000704712F1610F01D1420205D110F0FF
:100BE000004008BF6FF0004070474FF000007047B2
:100BF00042000ED2B2F1FE4F0BD34FF09E03B3EB87
:100C0000126209D44FEA002343F0004323FA02F0B2
:100C100070474FF00000704712F1610F01D142029E
:100C200002D14FF0FF3070474FF00000704700BF17
:100C300053B94AB9002908BF00281CBF4FF0FF3143
:100C40004FF0FF3000F074B9ADF1080C6DE904CE3F
:100C500000F006F8DDF804E0DDE9022304B0704797
:100C60002DE9F047089E0D4604468846002B4DD1DD
:100C70008A42944668D9B2FA82F252B101FA02F37A
:100C8000C2F1200120FA01F10CFA02FC41EA03084A
:100C900094404FEA1C45210CB8FBF5FE1FFA8CF777
:100CA00005FB1E8341EA03430EFB07F199420BD972
:100CB0001CEB03030EF1FF3080F01E81994240F2DD
:100CC0001B81AEF1020E63445B1AA4B2B3FBF5F0D4
:100CD00005FB103344EA034400FB07F7A7420AD997
:100CE0001CEB040400F1FF3380F00881A74240F2BE
:100CF000058164440238E41B40EA0E4000211EB125
:100D0000D4400023C6E90043BDE8F0878B4208D9F0
:100D1000002E00F0EE800021C6E900050846BDE87F
:100D2000F087B3FA83F100294AD1AB4202D3824261
:100D300000F2F980841A65EB030301209846002E27
:100D4000E2D0C6E90048DFE702B9FFDEB2FA82F27C
:100D5000002A40F09180A1EB0C054FEA1C471FFAD6
:100D60008CFE0121B5FBF7F307FB1350250C45EA78
:100D700000450EFB03F0A84208D91CEB050503F162
:100D8000FF3802D2A84200F2CB8043462D1AA4B20B
:100D9000B5FBF7F007FB105544EA05440EFB00FED7
:100DA000A64508D91CEB040400F1FF3502D2A64584
:100DB00000F2BB802846A4EB0E0440EA03409EE705
:100DC000C1F120078B4022FA07FC4CEA030C20FA01
:100DD00007F405FA01F31C43FD404FEA1C4900FAF1
:100DE00001F3B5FBF9F8200C1FFA8CFE09FB18552E
:100DF00040EA054508FB0EF0A84202FA01F20BD9C1
:100E00001CEB050508F1FF3A80F08880A84240F20B
:100E10008580A8F1020865442D1AA4B2B5FBF9F04B
:100E200009FB105544EA054500FB0EFEAE4508D906
:100E30001CEB050500F1FF346CD2AE456AD90238CF
:100E4000654440EA0840A0FB0294A5EB0E05A542CC
:100E5000C846A64656D353D05EB1B3EB080265EB45
:100E60000E0505FA07F722FA01F3CD401F43C6E944
:100E700000750021BDE8F087C2F1200320FA03F1DC
:100E80000CFA02FC25FA03F395400D434FEA1C4788
:100E90001FFA8CFEB3FBF7F107FB11302B0C43EA72
:100EA000004301FB0EF0984204FA02F408D91CEB4F
:100EB000030301F1FF382FD298422DD90239634440
:100EC0001B1AADB2B3FBF7F007FB103345EA03453D
:100ED00000FB0EF3AB4208D91CEB050500F1FF380F
:100EE00016D2AB4214D902386544ED1A40EA0141EA
:100EF00038E73146304607E78646E5E61846FAE623
:100F00004B45A9D2B9EB020864EB0C0E0138A3E7FC
:100F10004046EAE7204694E74146D1E7D0467BE7E2
:100F2000023B654432E7084609E76444023842E779
:100F3000704700BF844641EA000313F003036DD1FC
:100F4000403A41D351F8043B40F8043B51F8043B8C
:100F500040F8043B51F8043B40F8043B51F8043B93
:100F600040F8043B51F8043B40F8043B51F8043B83
:100F700040F8043B51F8043B40F8043B51F8043B73
:100F800040F8043B51F8043B40F8043B51F8043B63
:100F900040F8043B51F8043B40F8043B51F8043B53
:100FA00040F8043B51F8043B40F8043B51F8043B43
:100FB00040F8043B51F8043B40F8043B51F8043B33
:100FC00040F8043B403ABDD2303211D351F8043BD3
:100FD00040F8043B51F8043B40F8043B51F8043B13
:100FE00040F8043B51F8043B40F8043B103AEDD282
:100FF0000C3205D351F8043B40F8043B043AF9D2D3
:10100000043208D0D2071CBF11F8013B00F8013BA5
:1010100001D30B8803806046704700BF082A13D3B2
:101020008B078DD010F003038AD0C3F10403D21ACA
:10103000DB071CBF11F8013B00F8013B80D331F8FE
:10104000023B20F8023B7BE7043AD9D3013A11F87E
:10105000013B00F8013BF9D20B7803704B784370E9
:101060008B7883706046704700000000000000002D
:101070000000000000000000000000000000000070
:1010800090F800F06DE9024520F007016FF0000CC8
:1010900010F0070491F820F040F049804FF0000470
:1010A0006FF00700D1E9002391F840F000F108004B
:1010B00082FA4CF2A4FA8CF283FA4CF3A2FA8CF383
:1010C0004BBBD1E9022382FA4CF200F10800A4FAEA
:1010D0008CF283FA4CF3A2FA8CF3E3B9D1E904233E
:1010E00082FA4CF200F10800A4FA8CF283FA4CF375
:1010F000A2FA8CF37BB9D1E9062301F1200182FA2F
:101100004CF200F10800A4FA8CF283FA4CF3A2FA34
:101110008CF3002BC6D0002A04BF04301A4612BA42
:10112000B2FA82F2FDE8024500EBD2007047D1E945
:10113000002304F00305C4F100004FEAC50514F0D4
:10114000040F91F840F00CFA05F562EA05021CBFA5
:1011500063EA050362464FF00004A9E700000000BF
:1011600001F0FF01102A2BDB10F0070F08D010F858
:10117000013B013A8B422DD010F0070F42B3F6D15C
:10118000F0B441EA012141EA014122F007047FF075
:1011900000070023F0E80256083C85EA010586EACC
:1011A000010685FA47F5A3FA87F586FA47F6A5FA08
:1011B00087F68EB9EED1F0BC01F0FF0102F0070214
:1011C00032B110F8013B013A83EA010313B1F8D1BF
:1011D0000020704701387047002D06BF35460338A0
:1011E000073815F0010F07D1013015F4807F02BFD9
:1011F000013015F4C03F0130F0BC0138704700BF2A
:101200004FF0FF3C06E000BF4FF0010C02E000BFD2
:101210004FF0010C4DF804CD4FEA410C7FEA6C5CB5
:101220004FEA430C18BF7FEA6C5C1BD001B050EA58
:10123000410C0CBF52EA430C91EA030F02BF90EA43
:10124000020F0020704710F1000F91EA030F58BF02
:10125000994208BF90422CBFD8176FEAE37040F064
:10126000010070474FEA410C7FEA6C5C02D150EA02
:10127000013C07D14FEA430C7FEA6C5CD6D152EABD
:10128000033CD3D05DF8040B704700BF8446104682
:1012900062468C461946634600E000BF01B5FFF781
:1012A000B7FF002848BF10F1000F01BD4DF808ED51
:1012B000FFF7F4FF0CBF012000205DF808FB00BF22
:1012C0004DF808EDFFF7EAFF34BF012000205DF87C
:1012D00008FB00BF4DF808EDFFF7E0FF94BF0120C9
:1012E00000205DF808FB00BF4DF808EDFFF7CEFFCA
:1012F00094BF012000205DF808FB00BF4DF808ED09
:10130000FFF7C4FF34BF012000205DF808FB00BFD9
:101310004FEA410C7FEA6C5C02D150EA013C0AD1F1
:101320004FEA430C7FEA6C5C02D152EA033C02D1E3
:101330004FF0000070474FF0010070474FEA410244
:1013400012F5001215D211D56FF47873B3EB625217
:1013500012D94FEAC12343F0004343EA505311F03E
:10136000004F23FA02F018BF404270474FF00000D0
:10137000704750EA013005D111F0004008BF6FF00E
:10138000004070474FF00000704700BF10B582B0BA
:10139000002401940D4B1A6B42F400121A631B6B6C
:1013A00003F400130193019B22462146102000F014
:1013B00099FC102000F0CEFC22462146112000F0BE
:1013C00091FC112000F0C6FC02B010BD00380240B4
:1013D00030B589B0002403940494059406940794CE
:1013E0000094194B1A6B42F080021A631A6B02F0D8
:1013F00080020092009A01941A6B42F001021A6373
:101400001A6B02F001020192019A02941A6B42F0E7
:1014100002021A631B6B03F002030293029B0B4D43
:1014200022464FF48041284600F0C2FF4FF480432B
:101430000393012304930594069403A9284600F01E
:10144000C5FE09B030BD00BF0038024000040240B4
:1014500010B582B004468DF80400FF23012201A9D3
:10146000024801F016FE204602B010BDFC0C002020
:1014700010B502F0F3FA04461D4803F02BFD1D4B96
:101480004FF480720021204602F0A6FB00282DD1E7
:10149000184C6378207800EB032080B2FFF7B6F891
:1014A0000022154BFFF746FAFFF72CFB134B186091
:1014B0002379E07800EB032080B2FFF7A7F8002241
:1014C0000D4BFFF737FAFFF71DFB0D4B1860A379A3
:1014D000607900EB032080B2FFF798F80022064BFA
:1014E000FFF728FAFFF70EFB064B186010BD00BF90
:1014F000D8BF0008880A002000408F40640A0020FE
:10150000600A00205C0A002070B502F0A7FA0546C8
:101510001B4E1C493069FEF773FEFFF769FB80B272
:10152000194C2070000A607016497069FEF768FE59
:10153000FFF75EFB83B2E3701B0A23711149B069A8
:10154000FEF75EFEFFF754FB83B263711B0AA371C3
:101550004FF480720021284602F0B0FC40B10A4BE3
:101560004FF480720021284602F0B0FE20B170BD19
:10157000064803F0AFFCF2E7054803F0ABFCF6E7E2
:10158000680A002000007A44880A002014C000087D
:1015900038C0000872B6FEE700B595B030220021D1
:1015A00008A803F0E3FB0023039304930593069339
:1015B000079301931F4A116C41F080511164126C22
:1015C00002F080520192019A02931B4A116841F481
:1015D00080411160126802F480420292029A022253
:1015E000089201210B9110210C910E920F93082368
:1015F0001093A823119312920423139308A800F0C8
:10160000DDFE98B90F23039302230493002305936F
:101610004FF4A05306934FF480530793052103A87A
:1016200001F032F920B915B05DF804FBFFF7B2FF05
:10163000FFF7B0FF003802400070004000000000DB
:101640002DE9F04784B002F009FA00F0F9FAFFF74B
:10165000A3FFFFF7BDFEFFF799FE00F0E7F900F0EA
:10166000FFF900F0A5F800F0A5F902F0B5FF002899
:10167000FBD1FFF7FDFE404801F03CFA01223F4953
:101680003F4801F006FF002562E03E4BD3F804809E
:10169000D3F80890D3F80CA019693B4A1160596936
:1016A0003A4A11609A693A4B1A602846FEF7AEFF33
:1016B0002DA3D3E90023FFF73DF92DA3D3E90023A0
:1016C000FFF70EF809F0DEFA06460F460022314B0E
:1016D000FFF706F8FFF716FA2F4C206000222F4B79
:1016E00030463946FEF7FCFFFFF70CFA60602C4BE2
:1016F000A360204602F040F82A4803F0EBFB2A4999
:10170000214B1868FEF77CFD044627491F4B1868DB
:10171000FEF776FD064624491D4B1868FEF770FD5E
:10172000FFF740FA02903046FFF73CFA019020465E
:10173000FFF738FA009053464A4641461B4803F0EB
:1017400067FB0135FF2D00D10025642000F0A4FACD
:101750000C4801F0E5FE0028A7D00A4B1B78002BAF
:1017600093D0FFF7D1FE90E70000000000C05F407B
:101770004AD8124DFB210940F40B0020A50D002092
:10178000400D0020680A0020640A0020600A002042
:101790005C0A002000004E40880B002000005E40E4
:1017A00000007042D8BF000800007A445CC0000806
:1017B00008B50D480D4B03604FF48273436000235E
:1017C0008360C360036143614FF400728261C3614F
:1017D0000362436283620A23C36201F02BF900B9FA
:1017E00008BDFFF7D7FEFBE7980B00200030014053
:1017F00000B589B0002303930493059306930793E0
:101800000268154B9A4202D009B05DF804FB002132
:10181000019103F584335A6C42F480525A645A6C35
:1018200002F480520192019A02911A6B42F0020274
:101830001A631B6B03F002030293029B382303938A
:1018400002230493032306930523079303A9034864
:1018500000F0BCFCD8E700BF0030014000040240AB
:1018600082B0002100910B4B5A6C42F480425A64C2
:101870005A6C02F480420092009A01911A6C42F074
:1018800080521A641B6C03F080530193019B02B0D9
:10189000704700BF00380240FEE7FEE7FEE7FEE7C4
:1018A000FEE770477047704708B500F0E3F908BDE0
:1018B00008B5024800F09CFB08BD00BF3C0C0020AE
:1018C00008B5024800F094FB08BD00BF9C0C002046
:1018D00008B5024801F0BEFC08BD00BFFC0C0020AA
:1018E00008B5024801F0B6FC08BD00BF400D00205D
:1018F00008B5024801F046F908BD00BFF40B00200E
:101900000120704708B503F007FA162303604FF073
:10191000FF3008BD08B54FF0FF31FFF7F3FFFEE7DA
:1019200070B50C461646002506E0AFF30080214650
:1019300001F8010B01350C46B542F6DB304670BDAF
:1019400070B50C461646002504E014F8010BFFF7AD
:101950007FFD0135B542F8DB304670BD08B5034662
:101960000B4A126842B10A4A106803446A4693421D
:1019700006D8074A136008BD054A06491160F2E718
:1019800003F0CAF90C2303604FF0FF30F3E700BF08
:10199000F00B0020101300204FF0FF3070474FF481
:1019A00000534B60002070470120704700207047B3
:1019B0007047000008B50948094B0360A72343603E
:1019C0000023836041F28732C2600361836101F0CA
:1019D000FBF900B908BDFFF7DDFDFBE7F40B0020C4
:1019E0000020004002680E4B9A4200D0704700B5BC
:1019F00083B00022019203F50633196C41F4807123
:101A000019641B6C03F480730193019B01212D2049
:101A100000F068F92D2000F09DF903B05DF804FB9B
:101A20000020004008B501F065F808BD08B50A4877
:101A30000A4B03604FF4E133436000238360C360CB
:101A400003610C2242618361C36101F0F3FA00B9C2
:101A500008BDFFF79FFDFBE7FC0C002000100140D4
:101A600008B50A480A4B03604FF4E1334360002392
:101A70008360C36003610C2242618361C36101F032
:101A8000D9FA00B908BDFFF785FDFBE7400D00203E
:101A90000044004030B58BB00023059306930793B4
:101AA0000893099303684B4A934205D004464A4A77
:101AB00093422DD00BB030BD00240194474B5A6C9B
:101AC00042F010025A645A6C02F010020192019A1C
:101AD00002941A6B42F001021A631B6B03F00103BC
:101AE0000293029B4FF4C0630593022306930323E2
:101AF00008930723099305A9394800F067FB22469C
:101B00002146252000F0EEF8252000F023F9D1E74A
:101B100000250395314B1A6C42F400321A641A6C9A
:101B200002F400320392039A04951A6B42F0010208
:101B30001A631B6B03F001030493049B0C230593AE
:101B400002230693032308930723099305A9244836
:101B500000F03CFB2348244B03604FF000634360DC
:101B600040238360C5604FF48063036145618561F4
:101B7000C5610562456200F077F920BB194B6363CC
:101B80009C631A481A4B03604FF0006343600023C4
:101B90008360C3604FF480620261436183614FF4EC
:101BA0008072C2610362436200F05EF970B90F4B4C
:101BB000A3639C6300221146262000F093F82620A0
:101BC00000F0C8F876E7FFF7E5FCD7E7FFF7E2FC9F
:101BD000EDE700BF00100140004400400038024023
:101BE000000002409C0C0020A06002403C0C002041
:101BF0008860024010B504460E4B18784FF47A7393
:101C0000B3FBF0F30C4A1068B0FBF3F000F0B0F84F
:101C100068B90F2C01D901200AE0002221464FF0BB
:101C2000FF3000F05FF8054B1C60002000E0012051
:101C300010BD00BF040000200000002008000020AC
:101C400008B50B4B1A6842F400721A601A6842F425
:101C500080621A601A6842F480721A60032000F0F1
:101C60002FF80020FFF7C6FFFFF7FAFD002008BDA0
:101C7000003C0240034A1168034B1B780B4413607D
:101C8000704700BF840D002004000020014B18683D
:101C9000704700BF840D002038B50446FFF7F6FFFB
:101CA0000546B4F1FF3F02D0044B1B781C44FFF7FC
:101CB000EDFF401BA042FAD338BD00BF0400002056
:101CC000074AD36823F4E0631B041B0C000200F4F2
:101CD000E060034343F0BF6343F40033D3607047D5
:101CE00000ED00E000B5194BDB68C3F30223C3F13C
:101CF000070CBCF1040F28BF4FF0040C03F1040ED5
:101D0000BEF1060F18D9033B4FF0FF3E0EFA0CFC54
:101D100021EA0C0199400EFA03F322EA0303194366
:101D200000280BDB0901C9B200F1604000F56140F9
:101D300080F800135DF804FB0023E5E700F00F00D6
:101D40000901C9B2024B1954F4E700BF00ED00E0ED
:101D500014ED00E0002807DB00F01F02400901231A
:101D60009340024A42F82030704700BF00E100E093
:101D70000138B0F1807F0BD24FF0E0235861054A63
:101D8000F02182F823100020986107221A61704721
:101D90000120704700ED00E010B40368D9B210399B
:101DA0000B4AA2FB014212090A4CA25CC2655F29E0
:101DB00008D923F47F7323F0030304338365806D14
:101DC00010BC704723F47F7323F003038365F6E7A9
:101DD000ABAAAAAA88C00008836A826992B9012BBB
:101DE0000AD0022B02D00BB100207047C36A13F057
:101DF000807F28D100207047C36AB3F1C07F24D010
:101E000000207047B2F5005F09D0022B25D9032BC3
:101E100025D1C36A13F0807F23D100207047032BA4
:101E200003D8DFE803F01404140A00207047C36AE3
:101E300013F0807F0DD100207047C36AB3F1C07FDB
:101E400009D0002070470120704701207047012011
:101E50007047012070470120704701207047002023
:101E6000704701207047000070B50446FFF70EFF71
:101E7000002C5BD00546002384F83430022384F81C
:101E800035302268136823F00103136023681A6851
:101E900012F0010F0AD0FFF7F9FE431B052BF5D90D
:101EA00020236365032084F8350070BD1A6820483C
:101EB00010406168A2680A43E1680A4321690A4345
:101EC00061690A43A1690A43E1690A43216A0A4335
:101ED0000243616A04291ED01A602668756925F0DC
:101EE0000705636A1D43042B07D1A36A1D43E36AF8
:101EF0001BB12046FFF770FF90B975612046FFF7D0
:101F00004BFFE26D3F239340836000206065012317
:101F100084F83530C9E7E16A206B01430A43DBE707
:101F200040236365012084F83500BEE70120BCE74B
:101F30003F8010F070B50446866DFFF7A7FE94F859
:101F40003530DBB2022B06D080236365002384F892
:101F50003430012070BD05462268136823F0160353
:101F600013602268536923F080035361236CE3B14B
:101F70002268136823F0080313602268136823F0B3
:101F80000103136023681B6813F0010F11D0FFF7E2
:101F90007DFE431B052BF5D920236365002384F8C0
:101FA0003430032084F83500D4E7A36C002BDFD154
:101FB000E3E7E26D3F239340B360002084F83400F0
:101FC000012384F83530C5E790F83530DBB2022BB9
:101FD00003D08023436501207047052380F8353006
:101FE0000268136823F001031360002070470000AB
:101FF000F0B583B0044600230193724B1D68724B09
:10200000A3FB0535AD0A876D3E68C26D082393407A
:10201000334210D003681A6812F0040F0BD01A680C
:1020200022F004021A60C26D08239340BB60436D26
:1020300043F001034365E26D01239340334209D02D
:102040002268526912F0800F04D0BB60636D43F0C8
:1020500002036365E26D04239340334209D0226892
:10206000126812F0020F04D0BB60636D43F00403EA
:102070006365E26D10239340334224D022681268D6
:1020800012F0080F1FD0BB6023681A6812F4802F6B
:102090000DD01B6813F4002F04D1236C9BB1204694
:1020A000984710E0A36C73B1204698470BE01A687C
:1020B00012F4807F03D11A6822F008021A60236CA0
:1020C0000BB120469847E26D20239340334255D010
:1020D0002268126812F0100F50D0BB6094F83530AF
:1020E000DBB2052B0ED023681A6812F4802F33D090
:1020F0001B6813F4002F2AD1636C002B3ED02046BE
:1021000098473BE02268136823F0160313602268A7
:10211000536923F080035361236CA3B122681368D1
:1021200023F008031360E26D3F239340BB6000235C
:1021300084F83430012384F83530236D002B3FD0F0
:10214000204698473CE0A36C002BE7D1EBE7E36B1C
:10215000A3B12046984711E01A6812F4807F09D194
:102160001A6822F010021A60002384F83430012328
:1021700084F83530E36B0BB120469847636DFBB1B3
:10218000636D13F0010F17D0052384F835302268F2
:10219000136823F001031360019B01330193AB42E9
:1021A00004D823681B6813F0010FF5D1002384F8CD
:1021B0003430012384F83530E36C0BB12046984766
:1021C00003B0F0BD00000020B5814E1B00230F2B93
:1021D00000F2E48070B582B060E085685E000324A0
:1021E000B44025EA0405CC68B4402C4384604568BB
:1021F00025EA02054C68C4F300129A402A43426063
:102200005AE0DC08083450F8246003F00702950017
:102210000F22AA4026EA020E0A69AA4042EA0E02EA
:1022200040F824205CE0072200E0002202FA0EF2CF
:102230002A4302345A4D45F824205A4A14686FEA5A
:102240000C0224EA0C054E6816F4803F01D04CEADB
:102250000405544C2560646802EA04054E6816F4CF
:10226000003F01D04CEA04054E4C6560A46802EAC8
:1022700004054E6816F4801F01D04CEA0405494C51
:10228000A560E46822404D6815F4001F01D04CEAB7
:102290000402444CE26001330F2B7DD801229A40A6
:1022A0000C6804EA020C32EA0404F4D14C6804F02D
:1022B0000304013C012C90D94A6802F00302032A6E
:1022C00009D0C4685D000322AA4024EA02048A6897
:1022D000AA402243C2604A6802F00302022A90D058
:1022E00004684FEA430E032202FA0EF224EA0204C3
:1022F0004A6802F0030202FA0EF2224302604A68C0
:1023000012F0805FC7D000220192274A546C44F437
:1023100080445464526C02F480420192019A9C08F9
:10232000A51C1F4A52F8255003F003024FEA820E03
:102330000F2202FA0EF225EA02051C4A90423FF4EF
:1023400074AF02F5806290421AD002F5806290422A
:1023500018D002F58062904216D002F58062904259
:1023600014D002F58062904212D002F58062904251
:1023700010D002F5806290423FF455AF082255E735
:10238000012253E7022251E703224FE704224DE7DF
:1023900005224BE7062249E702B070BD704700BF37
:1023A00000380140003C014000380240000002407B
:1023B0000AB181617047090481617047002800F00B
:1023C000E08170B582B00446036813F0010F3BD082
:1023D0009F4B9B6803F00C03042B2CD09C4B9B68F9
:1023E00003F00C03082B21D06368B3F5803F4FD076
:1023F000B3F5A02F52D0964B1A6822F480321A609F
:102400001A6822F480221A606368002B50D0FFF70C
:102410003DFC05468E4B1B6813F4003F14D1FFF7BB
:1024200035FC401B6428F5D90320B1E1884B5B687B
:1024300013F4800FD8D0864B1B6813F4003F03D0F1
:102440006368002B00F09F81236813F0020F54D0C3
:102450007F4B9B6813F00C0F3ED07D4B9B6803F0C5
:102460000C03082B33D0E368002B68D0794B012292
:102470001A60FFF70BFC0546754B1B6813F0020F43
:1024800054D1FFF703FC401B0228F5D903207FE15C
:102490006F4A136843F480331360B5E76C4B1A68D6
:1024A00042F480221A601A6842F480321A60ABE764
:1024B000FFF7ECFB0546664B1B6813F4003FC3D0E7
:1024C000FFF7E4FB401B6428F5D9032060E1604B73
:1024D0005B6813F4800FC6D15D4B1B6813F0020FCD
:1024E00003D0E368012B40F05081594A136823F070
:1024F000F803216943EAC1031360236813F0080F4E
:1025000042D063696BB3534B0122C3F8802EFFF7AF
:10251000BDFB05464E4B5B6F13F0020F34D1FFF746
:10252000B5FB401B0228F5D9032031E1484A136866
:1025300023F0F803216943EAC1031360DDE7454B4B
:1025400000221A60FFF7A2FB0546414B1B6813F0FF
:10255000020FD2D0FFF79AFB401B0228F5D90320C7
:1025600016E13C4B0022C3F8802EFFF78FFB054697
:10257000374B5B6F13F0020F06D0FFF787FB401B52
:102580000228F5D9032003E1236813F0040F77D064
:102590002F4B1B6C13F0805F33D1002301932C4B26
:1025A0001A6C42F080521A641B6C03F08053019342
:1025B000019B0125284B1B6813F4807F23D0A3685F
:1025C000012B34D0052B38D0214B1A6F22F0010299
:1025D0001A671A6F22F004021A67A368002B3DD015
:1025E000FFF754FB06461A4B1B6F13F0020F46D140
:1025F000FFF74CFB801B41F288339842F3D903204C
:10260000C6E00025D6E7144A136843F480731360CC
:10261000FFF73CFB0646104B1B6813F4807FCED1BE
:10262000FFF734FB801B0228F5D90320B0E0084AED
:10263000136F43F001031367CFE7054B1A6F42F0A6
:1026400004021A671A6F42F001021A67C5E700BF59
:10265000003802400000474200700040FFF716FBC0
:102660000646524B1B6F13F0020F08D0FFF70EFB0C
:10267000801B41F288339842F3D9032088E0EDB9FA
:10268000A369002B00F08380484A926802F00C0294
:10269000082A51D0022B17D0454B00221A66FFF7AB
:1026A000F5FA0446414B1B6813F0007F42D0FFF758
:1026B000EDFA001B0228F5D9032069E03B4A136CB0
:1026C00023F080531364DBE7394B00221A66FFF7CF
:1026D000DDFA0546354B1B6813F0007F06D0FFF787
:1026E000D5FA401B0228F5D9032051E0E369226A9C
:1026F0001343626A43EA8213A26A5208013A43EA28
:102700000243E26A43EA0263284A5360284B0122EB
:102710001A66FFF7BBFA0446244B1B6813F0007FD0
:1027200006D1FFF7B3FA001B0228F5D903202FE0EA
:1027300000202DE000202BE0012B2BD01B4B5B68F1
:1027400003F48001E269914226D103F03F02216A3D
:102750008A4223D1616A47F6C0721A40B2EB811FE8
:102760001ED103F44031A26A5208013AB1EB024F84
:1027700018D103F07063E26AB3EB026F14D100204A
:1027800006E001207047012002E0012000E0002067
:1027900002B070BD0120FBE70120F9E70120F7E757
:1027A0000120F5E70120F3E70120F1E700380240BE
:1027B0000000474208B5314B9B6803F00C03042B23
:1027C00057D0082B57D12D4B5A6802F03F025B6857
:1027D00013F4800F2AD0294B5968C1F3881C4FEAA3
:1027E0004C11B1EB0C006EEB0E0E4FEA8E1343EA68
:1027F00090638101091A63EB0E03DB0043EA517316
:10280000C90011EB0C0C43F10003590200234FEAFD
:102810004C2041EADC51FEF70BFA184B5B68C3F31E
:10282000014301335B00B0FBF3F025E0134B596823
:10283000C1F3881C4FEA4C11B1EB0C006EEB0E0E8D
:102840004FEA8E1343EA90638101091A63EB0E038A
:10285000DB0043EA5173C90011EB0C0C43F1000398
:10286000990200234FEA8C2041EA9C51FEF7E0F9DF
:10287000D3E7034800E0034808BD00BF003802402A
:1028800000127A000024F400002800F09B8070B54C
:102890000D4604464F4B1B6803F007038B4208D2DA
:1028A000CBB24C4A1370136803F007038B4240F01D
:1028B0008B80236813F0020F17D013F0040F04D09D
:1028C000454A936843F4E0539360236813F0080F7C
:1028D00004D0414A936843F4604393603E4A93684E
:1028E00023F0F003A1680B439360236813F0010FFA
:1028F00032D06368012B21D09A1E012A25D9364A8D
:10290000126812F0020F61D033498A6822F0030284
:1029100013438B60FFF7BAF906462F4B9B6803F011
:102920000C036268B3EB820F16D0FFF7AFF9801B80
:1029300041F288339842F0D9032042E0264A1268D7
:1029400012F4003FE0D101203BE0234A126812F06C
:10295000007FD9D1012034E01E4B1B6803F0070330
:10296000AB4207D9EAB21B4B1A701B6803F007038E
:10297000AB422DD1236813F0040F06D0164A93689A
:1029800023F4E053E1680B439360236813F0080FCE
:1029900007D0114A936823F46043216943EAC103D5
:1029A0009360FFF707FF0C4B9B68C3F303130B4ABD
:1029B000D35CD8400A4B18600A4B1868FFF71AF925
:1029C000002070BD012070470120FAE70120F8E7E0
:1029D0000120F6E7003C02400038024070C00008C9
:1029E0000000002008000020014B1868704700BF5D
:1029F0000000002008B5FFF7F7FF044B9B68C3F306
:102A00008223034AD35CD84008BD00BF003802408F
:102A100080C0000808B5FFF7E7FF044B9B68C3F3CD
:102A20004233034AD35CD84008BD00BF003802409F
:102A300080C0000800285AD010B50446436A33B954
:102A40004368B3F5827F05D00023C36102E0002311
:102A5000036143610023A36294F85130002B40D0FE
:102A6000022384F851302268136823F04003136076
:102A7000636803F48273A26802F404421343E268B9
:102A800002F400621343226902F0020213436269F6
:102A900002F001021343A26902F400721343E269D7
:102AA00002F038021343226A02F080021343A26A42
:102AB00002F40052216813430B60638B03F004039C
:102AC000626A02F01002216813434B602268D369E6
:102AD00023F40063D36100206065012384F8513042
:102AE00010BD84F850302046FEF782FEB8E7012082
:102AF0007047000090F83D30DBB2012B37D1022344
:102B000080F83D300268D36843F00103D360036866
:102B1000194A934220D0B3F1804F1DD0A2F57C42D8
:102B2000934219D002F58062934215D002F580627B
:102B3000934211D002F5784293420DD002F57052C3
:102B4000934209D0A2F59432934205D01A6842F01C
:102B500001021A60002070479A6802F00702062AF4
:102B600007D01A6842F001021A6000207047012065
:102B700070470020704700BF000001407047704759
:102B80007047704710B5044603681A6912F0020FC7
:102B900011D0DA6812F0020F0DD06FF002021A6144
:102BA0000123037703689B6913F0030F70D0FFF7CD
:102BB000E6FF0023237723681A6912F0040F12D06E
:102BC000DA6812F0040F0ED06FF004021A610223CB
:102BD000237723689B6913F4407F5FD02046FFF77B
:102BE000CEFF0023237723681A6912F0080F12D052
:102BF000DA6812F0080F0ED06FF008021A61042391
:102C000023772368DB6913F0030F4ED02046FFF7CC
:102C1000B6FF0023237723681A6912F0100F12D031
:102C2000DA6812F0100F0ED06FF010021A6108234C
:102C300023772368DB6913F4407F3DD02046FFF7FC
:102C40009EFF0023237723681A6912F0010F03D037
:102C5000DA6812F0010F36D123681A6912F0800F7A
:102C600003D0DA6812F0800F34D123681A6912F0A9
:102C7000400F03D0DA6812F0400F32D123681A698E
:102C800012F0200F03D0DA6812F0200F30D110BDFF
:102C9000FFF774FF2046FFF773FF8AE72046FFF730
:102CA0006DFF2046FFF76CFF9BE72046FFF766FFAE
:102CB0002046FFF765FFACE72046FFF75FFF2046A1
:102CC000FFF75EFFBDE76FF001021A612046FEF7D5
:102CD000A9FEC1E76FF080021A61204600F0A1F85A
:102CE000C3E76FF040021A612046FFF74AFFC5E7CD
:102CF0006FF020021A61204600F092F8C7E700004A
:102D00000368304A904212D0B0F1804F0FD0A2F544
:102D10007C4290420BD002F58062904207D002F5CF
:102D20008062904203D002F57842904203D123F0B2
:102D300070034A681343234A90422AD0B0F1804F6F
:102D400027D0A2F57C42904223D002F580629042C7
:102D50001FD002F5806290421BD002F5784290426B
:102D600017D002F57052904213D002F58062904263
:102D70000FD002F5806290420BD0A2F598329042BB
:102D800007D002F58062904203D002F58062904243
:102D900003D123F44073CA68134323F080034A69C4
:102DA000134303608B68C3620B688362054B9842D0
:102DB00003D003F58063984201D10B6903630123BB
:102DC000436170470000014040B310B5044690F8DD
:102DD0003D30F3B1022384F83D30214651F8040B15
:102DE000FFF78EFF012384F8463084F83E3084F8E4
:102DF0003F3084F8403084F8413084F8423084F821
:102E0000433084F8443084F8453084F83D30002065
:102E100010BD80F83C30FEF7E5FDDBE70120704790
:102E2000704770470268D36823F49073D3600268D8
:102E3000536923F001035361036B012B05D0202359
:102E400080F83E300023036370470268D36823F0A4
:102E50001003D360F3E790F83D30DBB2212B01D0B3
:102E6000022070478368B3F5805F17D0036A5A1C4D
:102E700002621A7803685A60C38C9BB2013B9BB212
:102E8000C3844BB90268D36823F08003D36002681F
:102E9000D36843F04003D360002070470369002BE0
:102EA000E4D1036A1B880268C3F308035360036A12
:102EB00002330362E0E7000038B504460268136994
:102EC00023F44053C1680B431361836802691343C1
:102ED00042691343C2691A430168CB6823F416435D
:102EE00023F00C031343CB600268536923F440734F
:102EF00081690B4353610368314A934206D002F55E
:102F00008062934202D0FFF775FD01E0FFF782FD7A
:102F1000E369B3F5004F29D00021031849411B187C
:102F200041F10001C90041EA5371DB0018186368E0
:102F30004FEA83024FEA937341F10001FDF778FEF7
:102F4000204DA5FB00325109642303FB11031B0133
:102F50003233A5FB03235B0903F0F00202EB0112FD
:102F600003F00F03216813448B6038BD002302185F
:102F700043EB0301121841F10001C90041EA52710B
:102F8000D200101841F10001626892185B41FDF710
:102F90004FFE0C4DA5FB00325109642303FB1103C6
:102FA000DB003233A5FB03235B095A0002F4F872FD
:102FB00002EB011203F00703216813448B60D4E78E
:102FC000001001401F85EB512DE9F84305460F46DF
:102FD00016469946DDF820802C68246837EA0403F9
:102FE0000CBF4FF0010C4FF0000CB4451FD1B8F1ED
:102FF000FF3FF1D0B8F1000F05D0FEF747FEA0EB80
:1030000009004045E8D92A68D36823F4D073D36017
:103010002A68536923F001035361202385F83D306A
:1030200085F83E30002385F83C30032000E0002086
:10303000BDE8F88358B310B5044690F83D300BB3A3
:10304000242384F83D302268D36823F40053D360EE
:103050002046FFF731FF2268136923F49043136180
:103060002268536923F02A0353612268D36843F42A
:103070000053D36000202064202384F83D3084F87E
:103080003E3010BD80F83C30FEF704FDD8E701204B
:1030900070472DE9F04182B01E4690F83D30DBB21A
:1030A000202B54D104460D469046002953D0002AC7
:1030B00053D090F83C30012B51D0012380F83C30A4
:1030C00000230364212380F83D30FEF7DFFD07462F
:1030D000A4F82480A4F82680A368B3F5805F05D007
:1030E0004FF00008002384F83C3012E0236913B14C
:1030F0004FF00008F6E7A8460025F3E738F8023B52
:103100002268C3F308035360E28C92B2013A92B290
:10311000E284E38C9BB273B100963B46002280218F
:103120002046FFF751FFE0B9002DE7D015F8012B3D
:1031300023685A60E8E700963B460022402120467B
:10314000FFF742FF78B9202384F83D3000E00220E9
:1031500002B0BDE8F0810120FAE70120F8E7022083
:10316000F6E70320F4E70320F2E7704708B50168AB
:10317000CA6822F04002CA60202280F83D20FFF792
:10318000F4FF002008BD704708B5806B0023C3859D
:10319000C384FFF7F8FF08BD704790F83E30DBB2FC
:1031A000222B53D110B504468368B3F5805F30D02D
:1031B000A26AB3F5805F04D0002B37D12369002BBE
:1031C00034D123685B681370A36A0133A362E38D73
:1031D0009BB2013B9BB2E385002B39D12268D368B7
:1031E00023F02003D3602268D36823F48073D36074
:1031F0002268536923F001035361202384F83E3091
:10320000236B012B18D0204600F060F900202063CA
:1032100010BD0269002ACBD1826A03685B68C3F3E0
:1032200008031380836A02338362D0E723685B68F4
:1032300003F07F031370C7E72268D36823F01003FD
:10324000D360A18D2046FFF7A7FFDFE7022070477C
:103250000020DDE730B583B0044602681368D0680B
:10326000516913F00F0505D113F0200F02D010F0B3
:10327000200F19D12DB111F0010119D110F4907F57
:1032800016D1216B012975D013F0800F03D010F0F7
:10329000800F40F0D88013F0400F03D010F0400FA3
:1032A00040F0D58003B030BD2046FFF776FFF9E748
:1032B00013F0010F06D010F4807F03D0226C42F08F
:1032C0000102226413F0040F04D019B1226C42F001
:1032D0000202226413F0020F04D019B1226C42F0F2
:1032E0000402226413F0080F07D010F0200F00D161
:1032F00019B1226C42F008022264226C002AD1D05B
:1033000013F0200F02D010F0200F21D123685B6949
:1033100003F04003226C12F0080F00D123B32046C3
:10332000FFF780FD23685A6912F0400F18D05A69E0
:1033300022F040025A61A36B73B1474A1A65A06B31
:10334000FEF742FE0028ADD0A06B036D9847A9E7B9
:103350002046FFF722FFD9E72046FFF714FFA1E739
:103360002046FFF710FF9DE72046FFF70CFF0023E4
:10337000236497E713F0100F86D010F0100F83D05E
:10338000002301931368019353680193019B5369D0
:1033900013F0400F33D0A16B0B685B689BB2002B1E
:1033A00080D0A08D98427FF67DAFE385CB69B3F5E1
:1033B000807F08D1A18DE38D9BB2C91A89B22046C6
:1033C000FFF7EAFE6EE7D36823F48073D3602268C8
:1033D000536923F0010353612268536923F04003CA
:1033E0005361202384F83E30002323632268D3688E
:1033F00023F01003D360A06BFEF79CFDDAE7A18DEC
:10340000E38D9BB2C91A89B2E38D9BB2002B3FF4C6
:1034100049AF00293FF446AFD36823F49073D360DB
:103420002268536923F001035361202384F83E305E
:10343000002323632268D36823F01003D36020465F
:10344000FFF7AAFE2EE72046FFF705FD2AE72046F4
:10345000FFF78CFE26E700BF893100080346816232
:103460008285C28500201864222283F83E2083F8DA
:103470003C001968CA6842F48072CA6019684A69D7
:1034800042F001024A611A68D36843F02003D36016
:10349000704708B590F83E30DBB2202B0DD171B1EA
:1034A0007AB190F83C30012B0DD0012380F83C30EC
:1034B00000230363FFF7D2FF00E0022008BD0120D4
:1034C000FCE70120FAE70220F8E7000008B50268EF
:1034D0000E4B1B689A4205D001220D490B48FFF79D
:1034E000D8FF08BD0B4A1388094908780A49C8540F
:1034F00001339BB21380B3F5806F02D313460022D1
:103500001A80064A136801331360E5E7400D002076
:10351000A50D0020A80D0020AC0D0020A00D00205E
:1035200030B4894B00221A7002E00B44874A1360C2
:10353000874B1B88874A1268D21A844909688A42D5
:10354000F3DC12E01B335942C3F30903C1F3090151
:1035500058BF4B428049CB5C5A2B29D001327B4B60
:103560001A607E4A136801331360794B1A88794BCD
:103570001B689B1A754A12689342C0F2E080514260
:10358000C2F30903C1F3090158BF4B429BB274490E
:103590000B805C1C73490C806F49C95CA529D1D094
:1035A00001326A4B1A606D4A136801331360DCE71D
:1035B00000216D4B19700AE0694B1B88664CE35C77
:1035C000694C94F800C063442370013109B2182992
:1035D0000BDC634C238801339BB22380B3F5806FEF
:1035E000EAD3A3F580632380E6E75D490B880133C6
:1035F0009BB20B80B3F5806F02D3A3F580630B8081
:10360000574B1B885449C95C574B1B78994207D0CC
:1036100001324E4B1A60514A136801331360A4E71C
:10362000524B1860524B01221A80524B00221A80D2
:1036300010E04E4B19684B4A1488474D2C5D0C70B6
:103640001188013111801A6801321A60494A1388C1
:1036500001331380474B1A88454B1B889A4209D285
:10366000404B1B88B3F5806FE3D3A3F580633D4ADD
:103670001380DEE7031D3D4A13603D4B0C221A8088
:103680003C4B00221A8010E0384B1968354A1488E8
:10369000314D2C5D0C701188013111801A68013296
:1036A0001A60344A138801331380324B1A88304B26
:1036B0001B889A4209D22B4B1B88B3F5806FE3D34A
:1036C000A3F58063274A1380DEE700F11003274A41
:1036D0001360274B0C221A80264B00221A8010E020
:1036E000224B19681F4A14881B4D2C5D0C701188E1
:1036F000013111801A6801321A601E4A13880133A1
:1037000013801C4B1A881A4B1B889A4209D2154BFE
:103710001B88B3F5806FE3D3A3F58063114A138050
:10372000DEE7104B1A880D4B1A60084A084B1B88BD
:1037300011680B441360044B01221A7015E7024B09
:10374000187830BC704700BF940D0020980D002001
:103750000C000020A00D0020AC0D0020880D0020E2
:103760009C0D00209E0D0020A40D00208C0D00203B
:10377000920D0020900D002038B5234BA5221A7021
:103780000023224A1370224A1370224A0121117029
:10379000214A13801BE050F821201E4D2B781A4C33
:1037A000E2544FEA222E03F1010C04F80CE04FEA38
:1037B000224E03F1020C04F80CE0120E03F1030C8C
:1037C00004F80C2004332B700131134B1980124B79
:1037D00019880229DFD9012307E00B4AD25C0B4983
:1037E000087802440A7001339BB20C2BF5D90649C4
:1037F000064B1B784B735A238B73FF230F2207480A
:10380000FFF747FC38BD00BFAC110020A40D00201D
:10381000A60D0020A70D0020960D0020400D0020D1
:1038200072B6704762B6704744F2A0131A46013B65
:10383000002AFBD170472DE9F8430D461E46DDF8FE
:1038400020900469174602B159B1B9F1000F00D0B8
:1038500046B1002221896068FEF7AAFD002080465B
:1038600022E0FEE7FEE74FF0FF0C25E04FF00408F2
:10387000B8F1000F2CD1C3F80CC04FF47A72236852
:103880001B68996811F0010F04D10AB1013AF6E7FB
:103890004FF00408B8F1000F1AD1DA68D2B2B8427A
:1038A00001D306F8012B013007EB090383420FD93E
:1038B000B842D8D215F801CB4FF47A7223681B684E
:1038C000996811F0020FD3D1002ACFD0013AF5E761
:1038D000012221896068FEF76BFD4046BDE8F88350
:1038E000436893B90A4B1A68136843F040031360A6
:1038F000084B4362084B8362084BC362084B036367
:10390000084B83634FF47A73C3630020704700BF92
:10391000980B0020373800082138000825380008A7
:1039200010000020293800080CB402B070470FB412
:1039300004B0704730B585B0044600B320309F23F3
:103940008DF80C30656A0323009302AB012203A9B2
:10395000A8470546E8B99DF8083023739DF809206B
:1039600062739DF80A10A173019100920B4A4FF403
:1039700058710B48FFF7D8FF284605B030BD094BFA
:103980000093094B094A4FF456710548FFF7CCFFE5
:10399000FEE70748FFF7CBFFEEE700BFF4C00008E3
:1039A000B8C0000854C7000890C0000898C00008BC
:1039B00054C1000808B10020704700B583B0054B22
:1039C0000093054B054A4FF4C0710548FFF7ACFF63
:1039D000FEE700BFD8C7000890C0000898C00008E4
:1039E000B8C0000800B583B098B1E2B190F83530A6
:1039F0001BB34FF0040E0020704521D200F1010CE2
:103A0000AEEB0C03DB0021FA03F313545FFA8CF0E6
:103A1000F2E70D4B00930D4B0D4A40F2E3310D4898
:103A2000FFF782FFFEE7084B00930B4B084A4FF469
:103A300079710848FFF778FFFEE74FF0030EDAE7E9
:103A400003B05DF804FB00BFB4C7000890C00008D5
:103A500098C00008B8C0000880C10008004870473E
:103A60001C00002010B584B005228DF80F2050B145
:103A70000B4691B1446A012200920DF10F012030F2
:103A8000A04704B010BD0A4B00930A4B0A4A40F20B
:103A9000C3310A48FFF748FFFEE7054B0093084B88
:103AA000054A4FF471710548FFF73EFFFEE700BF7E
:103AB00000C7000890C0000898C00008B8C00008FF
:103AC00088C1000870B584B00546C46B70B9154B49
:103AD0000093154B154A40F2CE311548FFF724FFED
:103AE000FEE7AB6B84B103B19847013C0DF10F01C8
:103AF0002846FFF7B7FF06460028F2D19DF80F30A1
:103B000013F0010FEDD100E0042626B99DF80F3027
:103B100013F0010F02D00748FFF709FF304604B049
:103B200070BD00BF40C7000890C0000898C00008E2
:103B3000B8C0000890C1000870B584B030B3044626
:103B400000F1200666238DF80C30456A00230093AF
:103B5000012203A93046A847054608BB2046FFF7C7
:103B6000B1FF99238DF80D30656A0023009301227F
:103B70000DF10D013046A8470546B8B1DDB9104A30
:103B800040F24B310F48FFF7CFFE0CE00E4B009395
:103B90000E4B0F4A4FF44E710A48FFF7C5FEFEE781
:103BA0000C48FFF7C4FE284604B070BD2046FFF75E
:103BB00089FF0546E2E70748FFF7B9FEF3E700BFD4
:103BC000DCC10008B8C000084CC7000890C000085D
:103BD00098C00008B8C100082DE9F04385B0F0B1E5
:103BE00004460F4616461D4600F120080BB390F818
:103BF000343043B38B18026993422ED8836A0BB1D9
:103C0000404698472046FFF75DFF814658B3E36A78
:103C10000BB140469847484605B0BDE8F0831D4BC0
:103C200000931D4B1D4A4FF4CA711D48FFF77CFEDF
:103C3000FEE7184B00931B4B184A40F295111848A9
:103C4000FFF772FEFEE7134B0093174B134A40F247
:103C500097111348FFF768FEFEE71448FFF767FE69
:103C60004FF00509D7E703238DF808300DF109025D
:103C700039462046FFF7B6FE94F8353043B10522A9
:103C8000676A00962B4602A94046B8478146BEE7C0
:103C90000422F5E7CCC7000890C0000898C00008CF
:103CA000B8C00008F8C1000800C2000810C200082F
:103CB00030B585B0F8B10C46054631B306238DF812
:103CC0000F300023009301220DF10F0105F12000B8
:103CD000D5F824C0E047E0B158B924B19DF80E30C2
:103CE00013F0020F1BD024B99DF80E3013F0020F11
:103CF0001AD105B030BD0F4B00930F4B0F4A40F265
:103D000075310F48FFF710FEFEE704238DF80F30E2
:103D1000D7E70DF10E012846FFF7A4FEDCE70948BE
:103D2000FFF705FE0220E4E70748FFF700FE022048
:103D3000DFE700BF14C7000890C0000898C0000863
:103D4000B8C0000838C200085CC2000870B584B072
:103D500010B30C4605460121FFF7AAFF0646C0B97D
:103D600024B3B7238DF80F306E6A0023009301222D
:103D70000DF10F0105F12000B0470646E0B985F8C6
:103D80003540BCB1104B114A4FF46C711048FFF72D
:103D9000CBFD304604B070BD0E4B00930E4B0F4A66
:103DA00040F29E310A48FFF7BFFDFEE7E9238DF898
:103DB0000F30D9E70A4BE6E724B103490948FFF77A
:103DC000B6FDE6E70649F9E788C2000890C2000898
:103DD000B8C0000828C7000890C0000898C00008B4
:103DE00080C20008B4C2000870B584B0002838D082
:103DF000044600F1200690F83430002B3BD0836A53
:103E00000BB13046984701212046FFF751FF054688
:103E1000E0B9C7238DF80C30A38A13F0080F34D013
:103E200094238DF80D3080238DF80E309A238DF871
:103E30000F30656A00230093042203A93046A84787
:103E400005465DBB2046FFF73DFE054600212046A6
:103E5000FFF72EFFE36A0BB130469847284604B0BF
:103E600070BD104B0093104B104A40F2C511104822
:103E7000FFF75AFDFEE70B4B00930E4B0B4A40F247
:103E8000C7110B48FFF750FDFEE7656A002300935A
:103E9000012203A93046A8470546D2E70648FFF7A6
:103EA00046FDD3E7A4C7000890C0000898C00008EA
:103EB000B8C0000800C20008E0C200082DE9F047C1
:103EC00084B0A8B104460D46174600F1200890F8CA
:103ED0003430BBB18B18026993421DD809B9BA427C
:103EE00020D0A36A0BB1404698474FF000093FE04D
:103EF0003C4B00933C4B3D4A40F201213C48FFF7CC
:103F000013FDFEE7374B00933A4B384A40F203214A
:103F10003748FFF709FDFEE73748FFF708FD4FF088
:103F200005091DE0FFF760FF814619E03A46294682
:103F3000204600F091FE00F10A0304EBC30393F85E
:103F400008A05E681DE004222FE02C48FFF7EFFC7C
:103F500000212046FFF7ACFEE36A0BB140469847CC
:103F6000484604B0BDE8F087B742F1D9BF1B3544DD
:103F7000002FEDD094F84430002BD7D194F81CA03A
:103F8000A66901212046FFF793FE81460028DFD174
:103F90008DF808A00DF1090229462046FFF722FD01
:103FA00094F83530002BCED005220023009302A9CF
:103FB0004046D4F824C0E04781460028C5D12046B9
:103FC000FFF780FD81460028C2D1B5FBF6F306FB62
:103FD0001353002BC8D0F21ABA42B9D29B1B1F440C
:103FE0001544C5E798C7000890C0000898C00008AD
:103FF000B8C0000800C2000810C2000810C30008C2
:104000002DE9F04F85B09846DDF838B000F1200377
:104010000393B0B105460E461746B8F1010F02D022
:10402000B8F5807F17D195F83430F3B1F3192A69C8
:10403000934224D8AB6A0BB1039898474FF000091C
:1040400044E03B4B00933B4B3B4A40F266213B48EC
:10405000FFF76AFCFEE7364B0093394B364A4FF4C4
:104060001A713648FFF760FCFEE7314B0093354B81
:10407000314A40F26A213148FFF756FCFEE73248E8
:10408000FFF755FC4FF005094DE04FF0040A32E010
:10409000B84500D33C463F1B2644DFF8B09022468B
:1040A000594609EB0A00FCF745FF002300930AEB91
:1040B000040249460398D5F824C0E047814638BB3E
:1040C0002846FFF7FFFC814628BBA3441FB301210C
:1040D0002846FFF7EDFD8146E8B91C4A022302F8A5
:1040E000013B31462846FFF77DFC95F83530002B23
:1040F000CBD04FF0050A4446B6FBF8F308FB136338
:10410000002BC5D0A8EB0304BC42C4D33C46C2E795
:104110000F48FFF70CFC00212846FFF7C9FDEB6AAA
:104120000BB103989847484605B0BDE8F08F00BF33
:1041300080C7000890C0000898C00008B8C00008F8
:104140003CC3000800C2000810C20008BC110020D7
:1041500064C300082DE9F04F87B088B304460F46CA
:1041600016461D4600F1200A90F83490B9F1000F70
:1041700030D08B180269934236D8836A0BB150460F
:10418000984717F0010F10D07B1C039305F1010B2A
:10419000009501231A4639462046FFF731FF804635
:1041A000002862D1013E5D46039F01212046FFF7B2
:1041B0007FFD8046002858D1AD238DF8103042E0B5
:1041C0003B4B00933B4B3C4A40F2BD213B48FFF741
:1041D000ABFBFEE7364B0093394B374A40F2BE212A
:1041E0003648FFF7A1FBFEE73648FFF7A0FB4FF08C
:1041F000050841E00DF1110239462046FFF7F2FBB8
:1042000094F8353063B30522297806AB134403F8DC
:10421000081C531C697806A8034403F8081C4FF0D7
:10422000000900230093023204A95046D4F824C0A8
:10423000E0478046B0B92046FFF744FC8046A0B96D
:10424000023E02370235012E1AD9B9F1000FD1D141
:104250002B788DF811306B788DF812300122E0E761
:104260000422D1E71848FFF762FBB8F1000F19D11B
:10427000E36A0BB150469847404607B0BDE8F08F5F
:1042800000212046FFF714FD80460028EDD1012EC5
:10429000EBD1009501231A4639462046FFF7B0FEC0
:1042A0008046E2E700212046FFF702FDE0E700BF7D
:1042B00074C7000890C0000898C00008B8C0000883
:1042C00000C2000810C2000864C3000800B583B033
:1042D000B0F814C01CF0010F06D11CF0040F09D176
:1042E000002003B05DF804FB00934FF48073FFF7E8
:1042F00087FEF6E7FFF72EFFF3E70000F0B585B085
:1043000008B30446164600F1200731B350238DF858
:104310000C30456A00230093012203A93846A847C0
:10432000054665B901238DF80C308DF80D60646A7F
:1043300000230093022203A93846A04705468DB901
:10434000284605B0F0BD094B0093094B094A40F2DD
:10435000FB310948FFF7E8FAFEE70121FFF7A8FC67
:104360000546DEE70548FFF7E2FAE9E7ECC6000894
:1043700090C0000898C00008B8C0000890C30008AA
:1043800010B582B0B8B10446FFF7AAFA034678B96F
:10439000636ACBB1236933B1A38A23B1A36913B193
:1043A000237F002B7AD12046FFF7C4FA0346A8B139
:1043B000184602B010BD6B4B00936B4B6B4AFC214F
:1043C0006B48FFF7B1FAFEE7664B0093694B674A0B
:1043D00040F209116648FFF7A7FAFEE7204600F011
:1043E0000FFC002864D00023A360236D2361B4F880
:1043F0004830012B08D00123A382636DA36194F898
:1044000058302377012303E00223A382F5E7013329
:10441000032B43D803F10A0204EBC2025268002ABC
:10442000F5D0A1698A42F2D2A26103F10A0204EB3B
:10443000C202127A2277EAE70133162B2ED803EB59
:1044400043024D4901EBC2021179227B9142F3D123
:1044500003EB4302484901EBC2025179627B91426E
:10446000EAD103EB4302444901EBC2029179A27BFA
:104470009142E1D1404A03EB430002EBC00152F804
:104480003000A060886820618889A0820969A161E4
:1044900003EB430302EBC302137D237722694AB186
:1044A000A38A3BB1A3692BB1237F1BB1002007E096
:1044B0000023C2E73148FFF73AFA012378E70130D9
:1044C00010280BD82E4B03EBC00C9CF804E094F89A
:1044D0000CC0E645F3D153F8301000E0002139B1AB
:1044E000A06828B1134602462648FFF720FA03E0E9
:1044F000F1B12548FFF71BFA2046FFF71DFB0346E5
:1045000000287FF455AFA28A12F0040F15D1E2689B
:1045100022F07F421D498A4216D0002B7FF448AF1B
:104520002269B2F1807F16D8002284F835203FE757
:1045300011461748FFF7FBF9DEE70022012120466C
:10454000FFF7DCFE0346E8E7002211462046FFF7AE
:10455000D5FE0346E1E701212046FFF7F7FB0346BE
:1045600026E700BF64C7000890C0000898C0000894
:10457000B8C00008B8C30008E8C70008C8C30008EE
:1045800010CA000800C400082CC40008C22016008D
:1045900058C4000838B50446FFF7F2FE054648B196
:1045A0006DB9012384F8343021680948FFF7BFF959
:1045B000284638BD2046FFF7FDF90546F0E7002301
:1045C00084F8343021680348FFF7B1F9F0E700BF01
:1045D00080C40008A8C4000838B50E4C0E4B0F4A22
:1045E00074212046FFF7A0F90D4A75212046FFF7F8
:1045F0009BF9002425460CB1284638BD0948742390
:1046000003FB04004460FFF7C5FF00B10546013419
:10461000F1E700BFB8C00008D4C40008DCC400083B
:1046200018C500081C00002010B584B04FF05A0CCB
:104630008DF808C04FEA114C8DF809C04FEA112CD3
:104640008DF80AC08DF80B104FF0FF0C8DF80CC0E0
:1046500068B1B1F1807F14D2EAB1446A2CB30093FF
:104660001346052202A92030A04704B010BD144B08
:104670000093144B144A4FF4AD711448FFF754F9EA
:10468000FEE70F4B0093124B0F4A40F25B110F48AD
:10469000FFF74AF9FEE70A4B00930E4B0A4A4FF424
:1046A000AE710A48FFF740F9FEE7054B00930A4B4D
:1046B000054A40F25D110548FFF736F9FEE700BFF5
:1046C00010D2000890C0000898C0000898CA0008DE
:1046D000D8CA0008E8CA0008B8C3000810B584B0FA
:1046E00000230293039308B30446002180F844108A
:1046F00008230DEB0302FFF797FF00BB9DF808307E
:10470000532B0BD19DF80930462B07D19DF80A3069
:10471000442B03D19DF80B30502B15D0184A7A2129
:104720001848FFF701F9002004B010BD164B0093A4
:10473000164B174A6D211348FFF7F6F8FEE71548A8
:10474000FFF7F5F80020EFE79DF80C2084F84620ED
:104750009DF80D3084F84530012B0AD89DF80E10D5
:10476000019100920C4A83210648FFF7DDF80120F1
:10477000DAE719460948FFF7DAF80020D4E700BF66
:1047800014CB000898CA000820D2000890C0000886
:1047900098C00008F4CA000898CB000860CB000855
:1047A00030B587B000230493059380B30C460029ED
:1047B00036D0082304AA1946FFF736FF002838D15F
:1047C0009DF8103023709DF8115065709DF81210FF
:1047D000A1709DF81320E2709DF814009DF815E07B
:1047E00040EA0E209DF816E040EA0E406060012984
:1047F00024D8082A28D90390029201950091154ADD
:10480000AD211548FFF790F8012007B030BD134BDC
:104810000093134B134A96210F48FFF785F8FEE7E4
:104820000E4B0093104B0F4A97210B48FFF77CF873
:10483000FEE70E48FFF77BF80020E6E72A460C4823
:10484000FFF775F80020E0E711460A48FFF76FF818
:104850000020DAE7BCCC000898CA0008FCD10008A8
:1048600090C0000898C00008D8CB0008E8CB00082A
:1048700020CC000874CC0008F0B58FB004460D467B
:104880004E6800210591202206A800F06FFAACB115
:10489000EDB1242305AA31462046FFF7C5FE0546A3
:1048A000F0B9B54EB54ACB213046FFF73DF8B44AD2
:1048B000CC213046FFF738F82B4635E0B14B00935A
:1048C000B14BB24AC221AC48FFF72EF8FEE7AD4B20
:1048D0000093AF4BAD4AC321A748FFF725F8FEE789
:1048E000AC48FFF724F800200FB0F0BD9A00D11CAF
:1048F0000EA8014411F8240C911C0EAE314411F89D
:10490000247C511C314411F8241C324412F8242C0C
:104910005E1C039202910197009033469E4ACE217D
:104920009548FFF701F8F3B2082BDFD99DF8153051
:1049300084F84B309DF8142002F00302012A06D0BF
:10494000032A32D09548FEF7F2FF0020CCE701227F
:1049500084F84A20924AD7218748FEF7E5FF9DF860
:104960001430C3F3800213F0040F27D07ABB9DF8F4
:104970001430C3F3C00213F0080F32D0002A39D12B
:104980009DF81630C3F34103012B7ED0022B00F0BB
:104990008880002B52D0002584F84E5084F84F5068
:1049A0008048FEF7C4FF28469EE7002384F84A307B
:1049B0007D4ADB217048FEF7B7FFD0E70123A4F85A
:1049C00048307A4AE6216C48FEF7AEFFCFE74FF455
:1049D0008073A4F84830764AEA216748FEF7A4FFBE
:1049E000C5E7012384F84C30724AF5216248FEF78E
:1049F0009BFFC5E7002384F84C306F4AFA215E48DC
:104A0000FEF792FF9DF81430C3F3001213F0100F5D
:104A10000BD0002AB4D0062384F84D30674A4FF4F7
:104A200082715548FEF780FFAAE7502384F84D3085
:104A3000634AFF215048FEF777FFA1E7012384F87E
:104A40004E30002384F84F305E4A40F20F114A483E
:104A5000FEF76AFF9DF81B209DF81A301B0443EAFD
:104A600002639DF8191043EA01239DF818100B43C7
:104A7000D20923D032BB236D534A40F231113E4854
:104A8000FEF752FF2F462E462FE0012384F84E30CA
:104A900084F84F304D4A4FF48A713748FEF744FF8F
:104AA000D8E7002384F84E30012384F84F30484A79
:104AB00040F219113048FEF737FFCBE7DB0801332E
:104AC0002365D8E723F00043232B05D8033B0122BD
:104AD00002FA03F32365CEE7002525653D48FEF77E
:104AE00026FF284600E70136F6B2032E78D806F1F5
:104AF0000E035A000EA901EB430313F8243C002BCC
:104B0000F1D0012101FA03F3B91C04EBC1014B649C
:104B100001320EA8024412F8242C81F84820009299
:104B20009B0A2D4A40F237111348FEF7FDFE01376C
:104B3000FFB2D8E70133DBB2032B4FD89A1C04EB4A
:104B4000C202526C002AF5D0861C04EBC606776CB4
:104B5000BA42EFD2861C04EBC60696F848C07264CF
:104B60009A1C04EBC20292F8481086F84810576469
:104B700082F848C0DEE700BF98CA000880CD000870
:104B8000A8CD0008E8D1000890C0000898C000082F
:104B9000D8CB000848CD0008C4CD000860CE00087E
:104BA000E8CD000894D000082CCE000898CE00086C
:104BB000B8CE0008E4CE000814CF0008D0CF00081B
:104BC00058CF000848D0000800D1000860D0000885
:104BD0007CD00008B8D0000818D100080135EDB22B
:104BE000032D09D82846AB1C04EBC3035B6C002BD8
:104BF000F4D06B1CDBB29FE7012084F8440073E61D
:104C000010B584B078B10446FFF768FD20B102A961
:104C10002046FFF7C5FD78B921680A48FEF787FEF0
:104C2000002004B010BD084B0093084B084A5121E6
:104C30000848FEF779FEFEE702A92046FFF71CFEB2
:104C4000EFE700BF54D1000834D2000890C000083C
:104C500098C0000898CA000800B583B090F84430A6
:104C600043B18446406DB1FBF0F300FB1313EBB985
:104C700003200BE00F4B00930F4B104A4FF4B7711A
:104C80000F48FEF751FEFEE788B1013800F10A0334
:104C90000CEBC3035B68002BF6D09342F4D8B1FB56
:104CA000F3FE03FB1E13002BEED100E0002003B047
:104CB0005DF804FBC8D10008B0D1000898C0000816
:104CC00098CA0008DFF834D00D480E490E4A002378
:104CD00002E0D458C4500433C4188C42F9D30B4AB0
:104CE0000B4C002301E013600432A242FBD3FCF71B
:104CF0005FFE00F017F8FCF7A3FC704700000220ED
:104D000000000020400A00202CD80008400A0020A3
:104D10000C130020FEE70000014B1868704700BF2D
:104D20009000002070B50D4E0D4D761BB61006D0CC
:104D3000002455F8043B01349847A642F9D1094EA6
:104D4000094D761B07F03AF9B61006D0002455F845
:104D5000043B01349847A642F9D170BD20D8000821
:104D600020D8000828D8000820D80008830730B5CC
:104D700048D0541E002A3FD0CAB2034601E0013C8D
:104D80003AD303F8012B9D07F9D1032C2DD9CDB2CD
:104D900045EA05250F2C45EA054536D9A4F1100250
:104DA00022F00F0C03F1200EE6444FEA121C03F12F
:104DB000100242E9045542E9025510327245F8D119
:104DC0000CF1010214F00C0F03EB021204F00F0CB3
:104DD00013D0ACF1040323F003030433134442F86B
:104DE000045B9342FBD10CF003042CB1CAB21C4407
:104DF00003F8012B9C42FBD130BD64461346002CC6
:104E0000F4D1F9E703461446BFE71A46A446E0E7A3
:104E10000FB400B5074983B004AB086853F8042BFE
:104E20008168019300F05EF803B05DF804EB04B014
:104E3000704700BF9000002070B5054688B0084656
:104E40000C46FCF71DF9224EAA6B05900121431870
:104E5000CDE9066104A8022104940393AC68019093
:104E6000029122B3636E13F0010FB4F90C309AB2C1
:104E700001D1980525D5910406D4626E43F4005300
:104E800022F40052A3816266284601AA214603F05B
:104E900003F9636E002814BF4FF0FF350A25DA07C7
:104EA00002D4A3899B0506D5284608B070BD2846C4
:104EB00002F0F4FED6E7A06D03F090FA284608B0A1
:104EC00070BDA06D03F088FAB4F90C309AB2D2E745
:104ED00048D20008024B01461868FFF7ADBF00BF7B
:104EE000900000202DE9F04FD5B01C460791914667
:104EF0000546099003F068FA0268179210460E946E
:104F0000FCF7BEF816901DB1AB6B002B00F02A82A7
:104F1000079A536EDD0740F13881B2F90C2091B247
:104F20008F0409D4079B42F400529A8191B21A4629
:104F30005B6E23F4005353660E0740F1CB80079B52
:104F40001B69002B00F0C68001F01A030A2B00F049
:104F5000CF8000242BAB4D46CDE92944CDE919443F
:104F6000CDE91B44129428939846189400230B947F
:104F70000024CDE914342B78002B00F09D81AA4643
:104F800004E01AF8013F002B00F0C780252BF8D170
:104F9000BAEB050640F0C5809AF80030002B00F00F
:104FA0008B8100234FF0FF329AF801608DF8833037
:104FB0000A930AF1010A08921F462B244FF0200998
:104FC0000AF1010AA6F120035A2B00F2ED80DFE876
:104FD00013F0EB02EB00EB00E602EB00EB00EB0062
:104FE0006A00EB00EB005C028002EB0067028A02C1
:104FF000EB0085025B005B005B005B005B005B001D
:105000005B005B005B00EB00EB00EB00EB00EB00F8
:10501000EB00EB007A01EB00F801D2017A017A0192
:105020007A01EB00EB00EB00EB00E102EB00EB00A0
:105030002D02EB00EB00EB000202EB00A402EB0000
:10504000EB008307EB00EB00EB00EB00EB00EB0069
:10505000EB00EB007A01EB00F801D4017A017A0150
:105060007A01C702D401CD01EB00D402EB006C023F
:105070002F02B502CD01EB0002027E008007EB009B
:10508000EB006107EB007E00A6F1300300221AF866
:10509000016B02EB820203EB4202A6F13003092B03
:1050A000F5D90A928EE7DDF824B0584603F08CF962
:1050B00043681B931846FBF7E3FF1C9006465846CF
:1050C00003F082F983681993002E40F0CD869AF898
:1050D000006075E7079D0998294601F0ADFC00289E
:1050E00041F01C83A98901F01A030A2B7FF431AF28
:1050F000079AB2F90E30002BFFF62BAF536ED8078C
:1051000002D4890541F13B810799099823464A4613
:1051100055B0BDE8F04F01F04FBCBAEB050600F00A
:10512000CB802A9B33442A93299B0133072BC8E960
:105130000056299305DC08F108080B9B33440B93B8
:105140002AE70799099828AA04F086FB80B90DF18F
:10515000AC08F2E70799099828AA04F07DFB00281B
:1051600000F09B800D9B1BB10998194602F08EFE42
:10517000079A536ED90740F1EA8093895B0601F1E3
:10518000D9820B9855B0BDE8F08F079BB3F90C207E
:10519000900591B23FF5C4AE1D46986D03F01CF921
:1051A000B5F90C2091B2BBE6002E00F085800022FC
:1051B0008DF8EC608DF883200123CDE90C32069345
:1051C00008920F92139210923BAD17F0020302D097
:1051D00006990231069117F0840B07D10A990698B7
:1051E000A1EB0009B9F1000F00F370832A9C8AB18A
:1051F000299A0DF1830101320134C8F80010072A01
:105200004FF001012A942992C8F8041000F3B683E4
:1052100008F1080883B1299B21AA01330234C8F898
:105220000020072B4FF002022A942993C8F804208B
:1052300000F3B28308F10808BBF1800F00F0698227
:10524000089B0C9AA3EB020BBBF1000F00F3AA82A0
:10525000FB0500F100820C9BC8F804301C44299B1C
:10526000C8F800500133072B2A94299300F32283B6
:1052700008F10808780705D50A9B069A9D1A002DA3
:1052800000F39683DDE90A2306998A42ACBF9B1896
:105290005B180B93002C7FF45DAF002329930D9BCB
:1052A0001BB10D99099802F0F1FD0DF1AC085546BE
:1052B0002B78002B7FF463AE2A9B002B41F0D38127
:1052C0000023299354E70E9B073323F00702F2E8EB
:1052D0000234CDE91434DDE9143424F000440E9294
:1052E000994618462146B54B4FF0FF32FCF710F8AF
:1052F000002840F0EF84B14B484621464FF0FF3282
:10530000FBF7E8FF002840F0E584DDE91401002206
:105310000023FBF7D5FF002840F067879DF8832026
:10532000A74DA84B27F080070321472EC8BF1D4675
:1053300000230D9306910C9108930F9313931093F0
:10534000002A3FF442AF069B013306933DE7079BDB
:105350009B899A053FF512AF079CA06D03F03EF8BC
:10536000A3890BE7099802F099FCD1E59AF800604F
:1053700047F0200724E647F01007BA060E9B40F1DD
:105380003B84073323F007031A465B6852F8084B47
:105390000E929946002BC0F24C84089B013300F01A
:1053A000D88254EA090327F0800B40F0D382089B8F
:1053B000002B40F0D4825F46002308930C9354AD39
:1053C0001DE10E9B002253F8041B8DF883208DF8FD
:1053D000EC100E93F0E60E9C089B54F8045B4FF023
:1053E00000098DF88390002D00F093855A1C00F081
:1053F00051861A4649462846FBF7B2FE0D90002812
:1054000001F00E810D9BCDF820905B1B0C930E9448
:1054100023EAE3739DF883200693CDF83490CDF80A
:105420003C90CDF84C90CDF8409089E747F01007BC
:1054300017F0200900F0D2830E9B073323F00703F7
:10544000D3F8049053F8084B0E9327F4806B002395
:1054500000228DF88320089A511C00F0B88054EA8D
:1054600009012BF0800740F0B180002A40F0F6855A
:10547000002BA1D11BF001030C9300F01484302306
:105480008DF84F310DF24F15B9E00E9B53F8042BF8
:105490000A92002A80F2DA830A9A0E9352420A9202
:1054A0009AF8006047F004078AE5BD0600F1D18450
:1054B000FC0600F1D885780600F1A586B90540F113
:1054C000D2850E9B0B9953F8042B0E931170554601
:1054D000EEE69AF800608DF8834071E59AF8006076
:1054E00047F080076CE5524612F8016B2A2E01F056
:1054F0003F82A6F13003092B924698BF002201F2A9
:10550000BC801AF8016B02EB820203EB4202A6F1A7
:105510003003092BF5D9089254E547F0100B1BF026
:10552000200900F076830E9B073323F00703D3F89E
:10553000049053F8084B0E93012389E70E9B53F810
:10554000044B0E93302378268DF884301E4B18932D
:1055500047F0020B8DF885604FF00009022377E7D2
:105560009AF80060682E03BF9AF8016047F400774C
:105570000AF1010A47F0400722E59AF800606C2E14
:1055800003BF9AF8016047F020070AF1010A47F0CB
:10559000100715E59AF8006047F0080710E59AF83B
:1055A000006047F001070BE59DF88330002B7FF486
:1055B0008EAD9AF800608DF8839001E5FFFFEF7FD4
:1055C0004CD2000850D200085CD20008BB46012B28
:1055D00000F0C081022B54AD20D1189A04F00F03C3
:1055E0002409D35C05F8013D44EA09744FEA19190E
:1055F00054EA0903F2D154AB5B1B5F460C93089944
:105600000C989DF8832081424FF00003B8BF0146FB
:105610000D9306910F931393109391E604F00703F3
:10562000E40844EA49744FEAD909303354EA0901DD
:105630002A4605F8013DF1D11BF0010FDBD0302BDC
:10564000D9D03023023A05F8013C54AB9B1A5F468F
:105650000C931546D3E7652E40F3E680DDE914018F
:1056600000220023FBF722FE002800F0DC81299BAA
:10567000BF4AC8F80020013301340122072B2A94C5
:105680002993C8F8042000F3CC8408F10808229B71
:10569000129A934280F2D682169B179A1C44C8E94C
:1056A0000023299B2A940133072B299300F3248498
:1056B00008F10808129B5D1E002D7FF7DBAD102D51
:1056C000299BDFF8B09240F3BD8449462246B94693
:1056D000DDF824B0079C10260F4605E008F1080805
:1056E000103D102D40F3AA8401331032072BC8E976
:1056F0000076CDE92932F1DD28AA2146584604F08A
:10570000ABF800287FF42EADDDE929320DF1AC08AD
:10571000E6E70A9B069AA3EB020BBBF1000F7FF7AB
:105720008FADBBF1100F299ADFF848922CDD1D9642
:1057300021464E46079CDDF82490102306E0ABF18D
:10574000100BBBF1100F08F108081ADD01321031FF
:10575000072AC8E90063CDE92921F0DD28AA2146FE
:1057600048460DF1AC0804F077F800287FF4FAAC55
:10577000ABF1100BBBF1100FDDE929214FF0100345
:10578000E4DCB1461D9E0C4601325C44072ACDE99B
:105790002924C8F80090C8F804B000F3A08308F1E9
:1057A00008084DE5BBF1100F299ADFF8C8912DDDEF
:1057B000204641464C46A846DDF82490079D10231C
:1057C00006E0ABF1100BBBF1100F01F1080119DD80
:1057D00001321030072AC1E90043CDE92920F0DD6C
:1057E00028AA2946484604F037F800287FF4BAACC6
:1057F000ABF1100BBBF1100FDDE929202BA94FF005
:105800001003E5DC4546A1468846044601325C4467
:10581000072ACDE92924C8F80090C8F804B000F39D
:10582000D08108F1080813E5129B012B40F3808119
:10583000299EC8F80050013601340123072E2A940E
:105840002996C8F8043000F37C8308F10808169BF9
:10585000179A01361C44072EC8E90023CDE92964B4
:1058600000F37C8308F10808DDE91401002200231D
:10587000FBF71CFD002840F07881129B0136013BAC
:1058800001351C44072EC8F800502996C8F804308A
:105890002A9400F35D8108F108081A9BC8F80430C7
:1058A00001361C44072E24ABCDE92964C8F800302A
:1058B0007FF7DEAC0799099828AA03F0CDFF0028EE
:1058C0007FF450AC2A9C0DF1AC08D3E4B9F1100F71
:1058D000DDE929212BDDCDE91D3B1F96DDF824B044
:1058E0004E461024A946079D04E0103E102E08F1F4
:1058F000080817DD0132204B1031072AC8E90034AF
:10590000CDE92921F1DD28AA294658460DF1AC0838
:1059100003F0A2FF00287FF425AC103E102EDDE935
:105920002921E7DCDDE91D3B4D46B1461F9EC8F845
:105930000490013209EB0104072A0F49C8F800104E
:10594000CDE9292400F351839DF8832008F108084C
:105950004DE4BB460A2C79F1000380F00C8330340F
:1059600001238DF84F415F460C930DF24F1546E62B
:10597000C0CD00089CD200088CD200080799099875
:105980001D9328AA03F068FF00287FF4EBAB2A9C44
:105990001D9B0DF1AC083DE40799099828AA03F076
:1059A0005BFF00287FF4DEAB2A9C0DF1AC0843E4DA
:1059B000102D299B21DD099FDDF81C90102604E0A5
:1059C000103D102D08F1080817DD0133BB4A1034D3
:1059D000072BC8E90026CDE92934F1DD28AA49467C
:1059E00038460DF1AC0803F037FF00287FF4BAAB5E
:1059F000103D102DDDE92934E7DC0133AF4AC8F84A
:105A000004502C44072BCDE92934C8F800207FF737
:105A100039AC0799099828AA03F01EFF00287FF4E3
:105A2000A1AB2A9C2EE42299002940F31481DDF8D1
:105A30004090129B9945A8BF9946B9F1000F0BDD24
:105A4000299B01334C44072BC8E900592A94299318
:105A500000F39A8508F10808109EB9F1000FA8BF5D
:105A6000A6EB0906002E00F34683DDF840B0790569
:105A7000AB4400F1CE84229B129A934202DBFA07D8
:105A800040F1B883169A17991444C8E90012299A6C
:105A90002A940132072A299200F3838508F1080825
:105AA000129AAE18A6EB0B06D51AAE42A8BF2E4628
:105AB000002E0DDD299BC8F800B001333444072BBC
:105AC000C8F804602A94299300F3F18508F10808C6
:105AD000002EA8BFAD1B002D7FF7CCAB102D299B4E
:105AE000DFF8DC9140F3AE8249462246B946DDF844
:105AF00024B0079C10260F4605E008F10808103D69
:105B0000102D40F39B8201331032072BC8E9007639
